:100000000C94B6020C94EE020C94EE020C94EE02E8
:100010000C94EE020C94EE020C94EE020C94EE02A0
:100020000C94EE020C94EE020C9463260C9436278A
:100030000C946D210C94EE020C94EE020C94EE02E2
:100040000C94EE020C94EE020C94EE020C94EE0270
:100050000C94EE020C9405220C94EE020C94EE0229
:100060000C94EE020C94EE020C94EE020C94EE0250
:100070000C94EE020C94EE020C94EE020C94EE0240
:100080000C94EE020C94EE020C94EE020C94EE0230
:100090000C94EE020C94EE020C94EE020C94EE0220
:1000A0000C94EE020C94EE020C94EE02A900AA004D
:1000B00024782378AB00AC00277828781D001B003B
:1000C0000600190005001100100036003700380046
:1000D0001E001F00200021002200230029002B0009
:1000E0003900E10024002500260027002D002E0005
:1000F000E000E300E2002C0014001A0008001500E4
:1001000017001C002A0031002800E50018000C0030
:10011000120013002F0030004C0021787F0020785F
:1001200004001600070009000A000B00E641E40085
:10013000500051000D000E000F003300340000008D
:10014000000000004F00520001000100010001000A
:10015000010001000100010001002C003A003B00F9
:100160003C003D003E003F00007C0100010001001A
:1001700040004100420043004400450001000100EE
:100180000100010001000100010001000100010067
:100190000100010001000100010001000100010057
:1001A00001000100460001004800010001000100BB
:1001B0000100010001000100010049004A004E0059
:1001C000010001000100010001000000000000002A
:1001D0004D004B001E0F056432146432141E140AC5
:1001E000052223252628292A2C2D2F303233353677
:1001F000383A3B3D3E4042434547494A4C4E5051B8
:10020000535557595A5C5E6062646668696B6D6FDE
:1002100071737577797B7D7F81838587898A8C8EE1
:1002200090929496989A9C9E9FA1A3A5A7A8AAACE9
:10023000AEAFB1B3B4B6B8B9BBBCBEBFC1C2C3C523
:10024000C6C7C9CACBCCCDCED0D1D2D2D3D4D5D6C5
:10025000D7D7D8D9D9DADADBDBDBDCDCDCDCDCDDF8
:10026000DDDDDDDCDCDCDCDCDBDBDBDADAD9D9D8DC
:10027000D7D7D6D5D4D3D2D2D1D0CECDCCCBCAC974
:10028000C7C6C5C3C2C1BFBEBCBBB9B8B6B4B3B1A3
:10029000AFAEACAAA8A7A5A3A19F9E9C9A9896943E
:1002A00092908E8C8A89878583817F7D7B79777513
:1002B00073716F6D6B6968666462605E5C5A5957F2
:1002C000555351504E4C4A4947454342403E3D3BB1
:1002D0003A3836353332302F2D2C2A29282625233B
:1002E00022FFAA7F55400001010101010101010126
:1002F00002020202020202020203030303030303D7
:1003000003040404040404040505050505060606A3
:100310000606070707070708080808090909090A60
:100320000A0A0B0B0B0C0C0C0D0D0D0E0E0E0F0F05
:100330000F10101111111212131314141515161693
:100340001717181819191A1A1B1B1C1D1D1E1E1F02
:100350002020212222232424252626272829292A51
:100360002B2C2D2D2E2F3031323233343536373879
:10037000393A3B3C3D3E3F40414243444546474875
:10038000494A4C4D4E4F50515354555658595A5B4B
:100390005D5E5F616264656668696B6C6D6F7072EB
:1003A000737577787A7B7D7E8082838587888A8C57
:1003B0008E8F91939596989A9C9EA0A2A3A5A7A98B
:1003C000ABADAFB1B3B5B7BABCBEC0C2C4C6C9CB82
:1003D000CDCFD1D4D6D8DBDDDFE2E4E7E9EBEEF038
:1003E000F3F5F8FAFDFF160361006B006B006F0078
:1003F000740061006B006F003600350000002003C0
:100400004200720061006E0064006F006E00200008
:1004100046006C00650078006D0061006E00000011
:100420000403090409023B00020100A0FA090400C8
:10043000000103010100092111010001224400070C
:1004400005810308000109040100010300000009FF
:10045000211101000122B6000705820320000112CC
:1004600001000200000008EDFE0000000101020092
:100470000105010902A10185020901A1000509196F
:10048000012908150025019508750181020501095A
:100490003009311581257F950275088106093815C7
:1004A00081257F950175088106050C0A38021581A2
:1004B000257F950175088106C0C005010980A1014D
:1004C000850319012AB700150126B700950175109B
:1004D0008100C0050C0901A101850419012AA002AF
:1004E000150126A002950175108100C005010906BD
:1004F000A1018506050719E029E7150025019508E2
:10050000750181020507190029EF1500250195F0F5
:1005100075018102050819012905950575019102EA
:10052000950175039101C005010906A1010507198F
:10053000E029E715002501950875018102950175EF
:100540000881010507190029FF150026FF009506FF
:100550007508810005081901290515002501950573
:1005600075019102950175039101C00011241FBE10
:10057000CFEFDAE0DEBFCDBF04B603FE18C0809136
:10058000800590918105A0918205B0918305873007
:10059000904BA740B04B59F4109280051092810502
:1005A0001092820510928305E0E0F8E3099511E0CE
:1005B000A0E0B1E0E0E7F6E502C005900D92A03EB4
:1005C000B107D9F725E0A0EEB1E001C01D92A03837
:1005D000B207E1F70E94A3120C94D02A0C940000F9
:1005E000811105C0662319F08EEA0E943E0581E064
:1005F00008958230B8F46730A8F44A3098F4E42FB4
:10060000F0E09AE0699FE00DF11D112496E4899FC6
:10061000E00DF11D1124EE0FFF1FE454FF4F8591F3
:100620009491089581E090E008950E94F902089560
:10063000982F962B923098F4E82FF0E0EE0FFF1FE2
:10064000E60FF11DEE0FFF1F81E04827E40FF11DBB
:10065000EE0FFF1FE455FF4F85919491089581E0BF
:1006600090E008950E941803089581E008950E9483
:100670003503089581E008950E94350308950E948E
:100680003C03089508950E9442030895A6E0B0E057
:10069000ECE4F3E00C945A2949835A839E83309109
:1006A000E70189819A8131111AC03E81332399F083
:1006B000222389F00E940809182F682F89819A81C6
:1006C0000E94D50869817A81812F0E943210269676
:1006D000E3E00C9476290E94EF08182FF3CF0E94D4
:1006E000080969817A81F1CFFC01262F408151816F
:1006F00062817381848195810E9446030895CF931E
:10070000DF93D82FC92F61E00E9474036D2F7C2FD7
:100710000E943703DF91CF910895CF93DF93D82FB5
:10072000C92F60E00E9474036D2F7C2F0E94430349
:10073000DF91CF91089581E008950E949B03089571
:10074000CF93C82F0E94A7078C2F0E949D032FEFE5
:1007500084E39CE0215080409040E1F700C000001D
:10076000CF91089581E00E94A0030E94292208955C
:1007700080E00E94A0030E944D2208950F931F93D2
:10078000CF93DF938C0161E00E947403EC01F801C8
:10079000858181110E945918B801CE010E943F0342
:1007A0008823E1F1B801CE010E943F1F8823B1F1F7
:1007B000B801CE010E945E1B882381F1B801CE01F1
:1007C0000E94331B882351F1B801CE010E94791891
:1007D000882321F1F8018581882381F0CA35FCE75F
:1007E000DF0739F178F4C130ECE7DE07F9F0C33008
:1007F000FCE7DF07C9F0C115DC4771F0C8010E94B2
:100800003A030DC0CB35ECE7DE07B1F0CC35DC4761
:10081000A9F70E943C0DF2CF0E94B20380E0DF9165
:10082000CF911F910F9108950E944E0D0E94B80321
:10083000F5CF0E94460DE2CF0E944A0DDFCF0E9405
:1008400049210E94460408950E944A040E944E21B4
:100850000895089581E008950895CF93DF93D82FE8
:100860000E942A04C82F882319F08D2F0E942C047F
:100870008C2FDF91CF9108950895CF93C82F0E94B8
:1008800029048C2F0E942D04CF91089580E00E94AE
:100890003D0408950E94851F0E943D040895CF9352
:1008A0000E94851FC82F8091E2018C1779F0C093B8
:1008B000E2010E94D9216093E3017093E4018093E7
:1008C000E5019093E6018C2F0E943D04CF9108959D
:1008D000ADE0B0E0EEE6F4E00C945B294887598780
:1008E0006A877B878C879D8791110E94470C1F82A6
:1008F00086E0FE013896DE01119601900D928A95F0
:10090000E1F78D8181110DC029813A814B815C8194
:100910006D817E818F810E948D0B2D96E2E00C947B
:100920007729CE0101960E947F038111EDCFF5CF8B
:10093000FC018481813021F4808191810E943A09F7
:100940000895662329F00E94CC1C0E94A21D0895E0
:100950000E942A1DFACFCF93C82F882399F08CEFDD
:100960008C0F813A88F48C2F0E942820882329F04C
:100970008C2F0E94CD200E94DF0C8C2F0E94B6206D
:100980000E94DF0CCF91089580E28C0F883048F4EC
:10099000C77081E001C0880FCA95EAF70E94280C51
:1009A000EFCF8BE58C0F833038F42C2F2452330B90
:1009B000C9010E94BB1FE6CFE8E5EC0FEB3150F414
:1009C000F0E0EE0FFF1FE55DFE4F808191810E94F8
:1009D000E11FD8CF83E38C0F8331A0F661E08C2F29
:1009E0000E94A104CFCF882381F19CEF980F913A08
:1009F00028F40E94CD200E94DF0C089590E2980F09
:100A0000983050F4877091E001C0990F8A95EAF709
:100A1000892F0E942E0CEFCF9BE5980F933028F47E
:100A200080E090E00E94BB1F089598E5980F9B31ED
:100A300028F480E090E00E94E11F089593E3980F6E
:100A4000933118F460E00E94A10408951F93CF939E
:100A5000DF93182FEB010E94AB04209739F4812F0C
:100A60000E94F304DF91CF911F9108958FE99FE0D9
:100A70000197F1F700C000002197EFCF60E070E030
:100A8000893311F460E570E00E94260508958823FB
:100A900021F00E94280C0E94DF0C0895882321F089
:100AA0000E942E0C0E94DF0C0895A0E0B0E0EBE560
:100AB000F5E00C9455296C01D62FC72FFC01158148
:100AC000068102950F700E941D0CE82E8823F9F014
:100AD000E12E1123E1F08C2F807F803461F080E2E1
:100AE0008D0F8830F0F08C2F807E803221F4D23050
:100AF000C0F00023B1F08091720482FF12C082E046
:100B00000E940F0D0E941D0C91E0E82EE926EC2FAB
:100B1000E295EF70C03CB0F5F0E0EE52F54D0C946C
:100B20004529E12CF4CF0C2F0F70C03110F0029545
:100B3000007F112399F0002359F080E28D0F883057
:100B400010F0D11107C0802F0E94280C0E94DF0CEA
:100B50008D2F51C0802F0E94390CF8CF8D2F0E940D
:100B6000F304002379F080E28D0F883010F0D1116A
:100B700004C0802F0E942E0C03C0802F0E943F0CC7
:100B80000E94DF0CEE2089F00E94190C80FD0DC040
:100B9000F60115820E94130C0E943208C6010E94C1
:100BA0006E070E94130C0E944208CDB7DEB7E8E042
:100BB0000C947129FC2FFF70FF2EC07FC03219F0FA
:100BC000F29480EFF822DD2341F0D130D1F11123EE
:100BD00009F444C00023F1F0BBCF8091720482FD80
:100BE00015C0112359F0FF2029F08F2D0E94280CE9
:100BF0000E94DF0C80E00E94AB04C4CF80E00E9422
:100C0000F304FF2009F4BECF8F2DB4CF112369F078
:100C1000011104C08F2D0E944705B4CF013009F0A7
:100C2000B1CF8F2D0E945F0CADCF0111ABCF8F2DB7
:100C30000E944E058F2D0E946B0C8F2D0E944E0C32
:100C4000A1CF112321F0063008F09CCFE3CF05306F
:100C500008F098CF8F2D0E944E0594CF0023D1F33A
:100C6000D93349F42FEF87EE93E021508040904034
:100C7000E1F700C000008D2F0E94F30483CF8C2F7A
:100C8000869586958370882369F0813009F07ACF44
:100C90008D2F9C2F9370111102C080E090E00E9474
:100CA000E11F70CF8D2F9C2F9370111102C080E037
:100CB00090E00E94BB1F66CF612F8D2F0E94A10480
:100CC00061CF8C2F8370811139C0111129C04D2F34
:100CD000429546954770440F440F2D2F2F7030E0FA
:100CE000042E02C0220F331F0A94E2F780E090E046
:100CF000D4FF09C08FE090E002C0880F991F4A9589
:100D0000E2F780959095C695C695C370822B932B7C
:100D1000C23071F0C33079F0C13039F00E9402085E
:100D20000E94851F0E943D042DCF0E94F907F8CF35
:100D30000E940B08F5CF0E94F607F2CF112361F154
:100D4000C0FFEECF4D2F429546954770440F440F9C
:100D50002D2F2F7030E0042E02C0220F331F0A9473
:100D6000E2F780E090E0D4FF09C08FE090E002C09D
:100D7000880F991F4A95E2F780959095C695C6957C
:100D8000C370822B932BC23069F0C33071F0C13035
:100D900031F00E946D08C4CF823010F2D3CF0E9490
:100DA0006408BECF0E947608BBCF0E941A08B8CF55
:100DB000CF70112339F08C2F0E9432088D2F0E94A2
:100DC0004705AECF8D2F0E944E058C2F0E94420802
:100DD000A7CFD23F31F170F4D03FB9F0D13FB1F19C
:100DE000112309F451C0002309F44BC08D2F0E9438
:100DF000AB0496CFD33FE1F0D43F21F11111F3CFF3
:100E0000011150C08C2F8F71E1CF112341F00530BB
:100E100008F086CF8C2F8F710E94540881CF053047
:100E2000F7CF8C2F8F711111D1CF0E94320878CF5C
:100E3000112329F08C2F8F710E94260871CF0E94F8
:100E400021086ECF8091720482FD06C08C2F8F71B5
:100E5000112309F4BBCFE9CF112349F0CF718C2FB7
:100E60000E94320863E08C2F0E94F10C59CF81E080
:100E70000E940F0D023008F453CF82E00E940F0D44
:100E80004FCF8C2F8F71D1CF002309F4BBCFD93333
:100E900049F4EFEFF7EE23E0E150F0402040E1F7B6
:100EA00000C000008D2F0E94F3043ACF0F931F93D0
:100EB000CF93DF93EC01688179818D810E9447098E
:100EC0008C010E947F080E94F507B801CE010E94A4
:100ED0005505DF91CF911F910F910895CF93DF9327
:100EE000EC018C81882399F0CE010E94BE03811110
:100EF00011C00E941D0C882351F08D81882339F088
:100F00008091720482FF03C082E00E940F0DDF9186
:100F1000CF910895CE010E945607CE010E948D0305
:100F2000F6CF80E090E00E94BB1F80E090E00E943E
:100F3000E11F0E94470C0E94DF0C0E94BF1D0E940F
:100F4000A21D08950E94E4200E94910708950E9426
:100F5000360C0E94A2070895282F92959F70963014
:100F600091F060F4925F9F70923030F481E0203F06
:100F700079F030F4283E30F080E008959A5FF3CFA6
:100F8000243FD1F7089581E0283EE0F3213FF9CFD7
:100F90000895FC018481882339F0808191810E9429
:100FA0003A090E94AC07089580E00895A6E0B0E0F9
:100FB000ECEDF7E00C945B292696E2E00C9477299F
:100FC000A7E0B0E0E6EEF7E00C945B292796E2E0BC
:100FD0000C94772908950E94EA0708950E94EB0770
:100FE0009093130280931202089508950E94EE07D1
:100FF00008952091120230911302822B932B0E94AC
:10100000EE07089520911202309113028223932358
:101010000E94EE0708952091120230911302822758
:1010200093270E94EE0708950E94EA0708950E9400
:10103000140808950E9417089093110280931002DB
:10104000089580E090E00E941A08089521E030E0C1
:10105000A90102C0440F551F8A95E2F7CA010E94F8
:101060001A08089521E030E002C0220F331F8A954C
:10107000E2F78091100290911102822B932B0E9433
:101080001A08089521E030E002C0220F331F8A952C
:10109000E2F7209530958091100290911102822301
:1010A00093230E941A08089521E030E002C0220F25
:1010B000331F8A95E2F780911002909111028227E6
:1010C00093270E941A08089520911002309111026E
:1010D000822B932B0E941A080895209110023091C0
:1010E0001102822393230E941A080895209110026E
:1010F00030911102822793270E941A0808950895BB
:101100009B01677091E001C0990F6A95EAF763E06F
:10111000369527956A95E1F7220F331F220F331F6B
:10112000FA01E20FF31F40E050E0682F70E0819178
:10113000DF0111979B01042E02C0369527950A9472
:10114000E2F7217021952827292328272C934F5F28
:101150005F4F4430510559F708959C01982F9770BF
:1011600083E0369527958A95E1F7220F331F220FEA
:10117000331FFB01E20FF31F40E050E080E02191BC
:1011800030E0092E02C0369527950A94E2F72170C7
:101190003327042E01C0220F0A94EAF7822B4F5FF7
:1011A0005F4F4430510559F70895282F862F973007
:1011B00070F42A3058F4622F70E02AE0929F600D9C
:1011C000711D11244CEE51E00E94800808959C5F2F
:1011D0009230E0F7622F70E048EE51E0F5CF292F12
:1011E000973068F48A3090F490E06CEE71E03AE069
:1011F000239F800D911D11240E94AD0808952C5F3E
:10120000223020F468EE71E090E0F6CF80E008959F
:10121000A0E0B0E0EEE0F9E00C9454298C01E090FD
:101220001002F09011028091120290911302E82AAC
:10123000F92ACFE0D0E0CC24C394D12CC6010C2EE7
:1012400002C0880F991F0A94E2F78E219F21892BF3
:1012500049F4219798F7B12C8B2DCDB7DEB7E9E093
:101260000C947029BC2EB8018C2F0E944B10019752
:1012700081F3F2CFCF93DF93D82FC92F0E940809B3
:101280006D2F7C2F0E944B10DF91CF9108951F93FB
:10129000CF93DF93162FD72F9091E701992341F039
:1012A000862F972F0E943A09DF91CF911F910895C1
:1012B000882381F0862F972F0E940809C82F682F56
:1012C000812F9D2F0E94D508612F7D2F8C2F0E948A
:1012D0004B10EACF862F972F0E94EF08C82FF4CF2C
:1012E0000F931F93CF93E0911402C7E080911502F2
:1012F0008E1304C0CF911F910F9108950E2F10E00F
:10130000CE9FF0011124EA5EFD4F208131814281A0
:1013100053816481758186810E94E007F8013196CE
:10132000E770E4CF20914E0230914F02409150027D
:101330005091510260915202709153028091540277
:101340000E94E007089580915402803178F48091E2
:101350005302882359F0E091140220911502309134
:101360004F0240914E0257E02E1301C008956E2F98
:1013700070E05E9FF0011124DF01AA5EBD4F14965C
:101380008C911497882361F111968C911197831396
:1013900027C08C91841324C015968C9115978111C8
:1013A0001FC012968D919C91A0915002B091510254
:1013B0008A1B9B0B883C910598F4809154028F7096
:1013C000806180935402E45EFD4F80818F70806164
:1013D00080838EE492E00E946E070E947009089557
:1013E000FB013196E770C0CFE09114029091150295
:1013F00027E0E91302C080E00895AE2FB0E02E9FF1
:10140000F0011124EA5EFD4F3181361306C03081B0
:10141000381303C03581341304C0FD013196E770E1
:10142000E8CF81E008958F929F92AF92BF92DF92B2
:10143000EF92FF920F931F93CF93DF93CDB7DEB759
:101440002D970FB6F894DEBF0FBECDBF8C0186E09E
:10145000F801DE01189601900D928A95E1F7F801E6
:10146000E080F580A280B38084819EE4892E92E0A2
:10147000992E9091520291111BC0882309F4FCC04F
:10148000FF2009F43DC1C8010E94C907882309F45F
:1014900037C187E0F801D40101900D928A95E1F7F8
:1014A000C4010E9498040E94A3090E949209E4C00A
:1014B000D09053022091500230915102A501421B5D
:1014C000530BDD2009F4DBC0483C510508F0A6C0F1
:1014D000882309F4D1C090914F02918080915402E9
:1014E000803108F06BC0991228C090914E029E1175
:1014F00024C0F1105DC08F708061809354020E94FF
:1015000092098EE492E00E946E0780915402F801E5
:101510008683F12C8F2D2D960FB6F894DEBF0FBE6B
:10152000CDBFDF91CF911F910F91FF90EF90DF9092
:10153000BF90AF909F908F900895F11039C040E018
:10154000692D8E2D0E94F40940E0692D8E2D0E9498
:10155000F409F82E8111DDCF888599850E943A091A
:10156000292F22952F70903450F49F70223080F0F4
:10157000992399F0F8019681903178F4CBCF2A5FC6
:101580002F70223078F0C8010E946E07FD2CC2CF68
:10159000992319F0882309F4BDCF805E883008F4C0
:1015A000B9CFF1CF803F08F4B5CF815F8230F7CF5C
:1015B00080915402816080935402ABCF991207C08E
:1015C00090914E029E1103C0FF2009F479C0C8011A
:1015D0000E94C907882309F493C0FF2009F490C032
:1015E00080915402803288F020914E0230914F0257
:1015F0003A832983BC82AB82909152029D831E82E2
:101600008F83CE0101960E946E0787E0F801AEE459
:10161000B2E001900D928A95E1F745CF9091540286
:101620009031A0F4488559856A857B858C859D8598
:101630000E94D6078EE492E00E946E0787E0F401D4
:1016400011928A95E9F70E94920963CF8823A1F04D
:1016500020914F0281812813BACF80914E028E11C2
:10166000B6CFF110B4CF9683C8010E946E0787E011
:10167000F40111928A95E9F7FF24F3944BCF483C8B
:10168000510508F041C08823B9F3FF20C9F19091BA
:101690004F02818198132AC080914E028E1126C07C
:1016A0008091540280FD19C08031B8F08683807F1C
:1016B000803F39F08681982F907F905F8F70892BC3
:1016C0008683C8010E946E0787E0F801AEE4B2E0AD
:1016D00001900D928A95E1F7E8CE87E0F801AEE43B
:1016E000B2E001900D928A95E1F7C6CFC8010E9441
:1016F000C90781118ACF809154028160809354027E
:10170000C8010E946E07B8CF488559856A857B85D8
:101710008C859D850E94D60791CFAEE0B0E0E3E9CD
:10172000FBE00C945A29288739874A875B876C87A6
:101730007D878E87CE0108960E94130A8823B1F018
:101740006C85662341F0288539854A855B857D85D2
:101750008E850E94E00717E0809114029091150297
:1017600089133EC02E96E3E00C94762987E0FE01B3
:101770003896DE01119601900D928A95E1F720913D
:101780001502409114028C85882329F330E0C901A9
:1017900001968770992750E08417950799F097E094
:1017A000929FD001939FB00D1124AA5EBD4FFE0100
:1017B000319601900D929A95E1F7809315020E945F
:1017C0007009C9CF0E94A707109215021092140247
:1017D00087E0EEE4F2E0DF011D928A95E9F7BBCFE6
:1017E000189FC00111248A5E9D4F0E94130A88230E
:1017F00009F4B8CFE09114021E9FF0011124EA5EB3
:10180000FD4F2081318142815381648175818681C0
:101810000E94E0078091140290E00196877099275A
:101820008093140299CF80917D0286958695869546
:10183000089580917D028770089590917D02977040
:1018400081E0911101C080E008958091A90208957E
:101850009091A902982B9093A9020895982F9095A2
:101860008091A90289238093A90208951092A90268
:1018700008959091A802982B9093A8020895982F0C
:1018800090958091A80289238093A80208951092D0
:10189000A802089508950E944A0C089590917E022E
:1018A000292F2823222331F08095892380937E02DB
:1018B0000E944B0C089508950E945B0C089590912E
:1018C0007F02292F2823281729F0982B90937F0235
:1018D0000E945C0C089590917F02292F28232223D7
:1018E00031F08095892380937F020E945C0C0895DB
:1018F00080917F02882329F010927F0280E00E946D
:101900005C0C0895CF93DF93C091A9028091A80247
:10191000C82BD0917F02DD2331F00E940720811176
:101920000E94780CCD2B8C2FDF91CF910895CF930F
:10193000DF93C0910601D09107010E94820C888339
:10194000C0910601D091070148E050E065E772E0E0
:10195000CE010E94212A892B59F088E0FE01A5E7DB
:10196000B2E001900D928A95E1F7CE010E94921F9C
:10197000DF91CF910895CF93DF93C0910401D0916F
:1019800005010E94820C8983C0910401D091050158
:1019900040E250E065E572E0CE010E94212A892BE9
:1019A00059F080E2FE01A5E5B2E001900D928A9522
:1019B000E1F7CE010E949D1FDF91CF9108958091A4
:1019C0002A01882339F08091710487FF03C00E94A7
:1019D000BB0C08950E94970C089508950E94ED0C89
:1019E00008959091720492FF11C098E0899F900130
:1019F0001124622B60937D020E94320880917D0247
:101A00008695869586950E94EE0C08950E94320870
:101A1000089510927D0280E00E94EE0C089590914E
:101A20007D028095892380937D02282F27702111C4
:101A30000DC0891759F09091720492FF07C08695E6
:101A4000869586950E9442080E94090D08959091FE
:101A5000720492FB222720F9281769F080FB92F983
:101A60009093720480917104909172040E946F0DA2
:101A700082E00E940F0D08958091720482FB8827F6
:101A800080F991E089270E94270D089581E00E9446
:101A9000270D089580E00E94270D08956FEF7FEFD6
:101AA00080E090E00E94792A089580E090E00E9412
:101AB000452A9C0181E0263E3E4F09F080E00895D2
:101AC00082E090E00E94372A089583E090E00E942F
:101AD000372A089584E090E00E94452A0895BC01C9
:101AE00084E090E00E94792A0895AB01BC018FE068
:101AF00090E00E946D2A0895AB01BC0183E190E063
:101B00000E946D2A089560E070E0CB010E947C0D78
:101B1000089560E070E0CB010E94750D0E94830D76
:101B20000895A8E0B0E0E7E9FDE00C945B2966EEDB
:101B30007EEF80E090E00E94792A60E082E090E011
:101B40000E945B2A81E090E090931302809312023E
:101B500061E083E090E00E945B2A60E074E184E051
:101B600090E00E94792A60E086E090E00E945B2A83
:101B700060E087E090E00E945B2A40E050E0BA011C
:101B800088E090E00E946D2A60E084E290E00E948C
:101B90005B2A60E087E190E00E945B2A60E08CE0D5
:101BA00090E00E945B2A60E08DE090E00E945B2A5A
:101BB00019821A821B821C821D821E821F82188635
:101BC00048E050E068E170E0CE0101960E944B2AA7
:101BD00040E050E0BA0180E290E00E946D2A0E944D
:101BE000890D2896E2E00C9477290E94910D0895C2
:101BF000682F8EE090E00E945B2A0895A6E0B0E096
:101C0000E4E0FEE00C9459290E94CD218C018091E2
:101C1000AA029091AB028017910779F019821A827B
:101C20000E94CD21BC0149815A8180E090E00E9450
:101C300068041093AB020093AA022696E4E00C9489
:101C400075290E94D9216093C2027093C3028093C8
:101C5000C4029093C5026093BE027093BF0280934A
:101C6000C0029093C10208950E94D9216093C202DC
:101C70007093C3028093C4029093C5026093BA022A
:101C80007093BB028093BC029093BD0208950895A7
:101C900008950E94470E089508950E944C0E0895DD
:101CA00083E491E10E94B0120E94480E0E94490E06
:101CB000089581E008950E94590E08950E94590EDA
:101CC0000895089508950E94610E0E94620E08957D
:101CD0000E94550D811102C00E94F50D0E94600DF9
:101CE0008093C6020E946A0D9093720480937104DF
:101CF0000E94C31A0E94650D90E00E94F607809131
:101D00001002909111020E94170808950E94C421A8
:101D10000E94E4180E9400120E94680E0E943C0477
:101D20000E94AB170E94271B0E944D0E0895A6E04B
:101D3000B0E0EDE9FEE00C944F290E945B0E8111AA
:101D400013C00E94FE0D0E942F1B0E945A180E9471
:101D50004B1981110E94340E0E94E01D0E944F0415
:101D60002696EEE00C946B290E9416122CEA822E25
:101D700022E0922E640110E0F601E190F1906F01F3
:101D8000812F0E944D111F5F173009F44DC0E816D6
:101D9000F90691F38091C60281FD0E9456110E94BE
:101DA0005E0E782EF12C662463948F2D0E944D11C7
:101DB0008C01F401A190B1904F018A159B0569F146
:101DC000A826B926E12CCC24C394D12CC5018C21A2
:101DD0009D21892BC1F07720B1F0E982FA820E941F
:101DE000CD219C838B836D8221E0C8018C219D21B4
:101DF000892B09F420E049815A816B817C818D8196
:101E0000922F0E946804E394CC0CDD1CFAE0EF12E0
:101E1000DDCFF401329711830083F39487E0F81249
:101E2000C4CF0E94210E8FCFE816F90609F0B2CF79
:101E300088CF1F93CF93DF930E945010EC01811540
:101E400022E5920708F053C0811540E5940708F099
:101E5000DDC0803E9105F8F48D3C910508F0AEC0E0
:101E6000883A910580F4853A910508F099C081304F
:101E7000910521F00497813A910550F4CE01DF914C
:101E8000CF911F910895885A91094B9708F48BC000
:101E9000C0E0D0E0F3CF811550E49507F8F4C11508
:101EA00080E2D80708F0CBC0C83ED10538F3CE0198
:101EB0009A9581159F4160F78D2F0E94F410182F7D
:101EC000CE0199270E945010212F30E0322F222777
:101ED000E901CC27DF71C82BD92BD0CF99270E94DD
:101EE0005010CC27DF70C82BD92BD06AC7CF8038D1
:101EF00042E59407C8F5803652E5950708F067C0BB
:101F0000C03482E5D807B0F08C2F8695869587700F
:101F100020E2829FC0011124C37021E030E0A901BA
:101F200002C0440F551FCA95E2F7EA01C82BD92B0E
:101F3000DC68A4CFC03252E5D50708F041C08C2F31
:101F40008695869520E2829FC0011124C37021E00E
:101F500030E0A90102C0440F551FCA95E2F7EA011B
:101F6000C82BD92BDD688ACF803C52E5950760F4F9
:101F70008F71C03AD24508F03FC090E0982F882773
:101F8000EC01C46FD06A7ACF805C9245809708F0EC
:101F90007FCFDC2FCC27CC27DF71C06FD06A6ECF0C
:101FA000A497D0646BCFC85AD0E0CC0FDD1FCF59B7
:101FB000DE4F0990D881C02DD46460CFD0655ECF4C
:101FC000CF71D0E0DC2FCC27C16FD06A57CF869578
:101FD0008695877020E2829FC0011124C37021E0A2
:101FE00030E0A90102C0440F551FCA95E2F7EA018B
:101FF000C82BD92BDA6842CF0E94F410C82FD0E04A
:10200000DC2FCC27CC27DF71D06238CF8F710E94B4
:10201000F41065E0D695C7956A95E1F7CF70D0E0EA
:10202000DC2FCC27282F30E084FF05C054E0220F9E
:10203000331F5A95E1F7C22BD32BD0691FCF8D2FB9
:102040008F710E94F410182FCE0199270E94501012
:10205000212F30E0322F222722273F71282B392BC6
:10206000E901D2CF773038F46A3050F4462F672F29
:102070000E94150308957D3F31F441E0623040F045
:1020800080E090E008957C3FD9F76230C8F740E0E7
:102090000E94320308950E9432100E94190F089581
:1020A000803E9105D1F1C8F48133910509F47FC0D8
:1020B00048F48932910509F46FC08A32910509F418
:1020C0007DC0089589339105E1F082389105C9F00A
:1020D0008533910509F45BC00895843E9105D1F1E3
:1020E00048F4823E910531F1833E910541F181EE44
:1020F00090E00895863E9105C1F1873E9105E1F19A
:102100000895209171042370211165C020917204FB
:1021100023FF14C089E290E008952091710420FD0E
:1021200043C03091720430FF09C024FF4EC080E0EC
:1021300090E008952091710422FDF7CF0895209139
:10214000710422FD45C03091720430FD44C024FF6B
:10215000F5CFEDCF2091720421FFF0CF8091710473
:1021600084FDE5CF87EE90E008952091710423FF70
:10217000E5CF24FDDCCFF6CF2091710423FD2EC0E6
:102180003091720431FFE3CF84EE90E00895209106
:10219000710425FFD3CFBECF2091710425FD21C04E
:1021A0002091720423FFCACF89E390E00895209123
:1021B000710426FFC3CF8AE290E008952091710454
:1021C00026FFBCCF81E390E0089583EE90E0089570
:1021D00082EE90E0089580EE90E0089586EE90E023
:1021E000089585E390E0AACF9091710492FF10C00A
:1021F00041E0282F2471243009F040E031E0282FFD
:102200002871283009F030E0431711F02CE08227C4
:1022100093FF10C041E0282F2471243109F040E0E1
:1022200031E0282F2871283109F030E0431711F0F0
:102230002CE082273091720430FF10C051E0282F2B
:102240002171213009F050E041E0282F2871283019
:1022500009F040E0541711F029E0822731FF10C047
:1022600041E0282F2171213109F040E031E0282F91
:102270002871283109F030E0431711F029E0822756
:1022800094FD877E089580E0089508950E94451189
:10229000089508950E9449110895E82FF0E0EE0F87
:1022A000FF1FEF57FB4F808191810895089580EAC9
:1022B0008A95F1F7089500C008950E945711089576
:1022C000F894E82FE295EF70F0E041A18F7021E0E3
:1022D00030E0B90102C0660F771F8A95E2F7CB01A3
:1022E000962F9095942391A392A1892B82A3789401
:1022F00008950F931F93CF93DF93C1EAD1E08991A3
:102300008F3F11F00E94601181E0C83AD807B9F7F9
:10231000C7E9D1E001EA11E089918F3F11F00E94F5
:1023200060110C171D07C1F7DF91CF911F910F911D
:102330000895A0E0B0E0EFE9F1E10C945429EC013C
:10234000B62E062F10E0C8018F559E4F7C01FC0170
:1023500080818F3F09F44FC0F894E82FE295EF7029
:10236000F0E091A18F7021E030E001C0220F8A954A
:10237000EAF7892F822B81A382A12095282322A30B
:1023800078940E945B11E7E9F1E041E050E0C12C54
:10239000D12C21912F3F89F0A22FA295AF70A05E82
:1023A000B0E08C9190E02F7002C0959587952A95AA
:1023B000E2F781709A01882311F020E030E0C22A10
:1023C000D32A440F551F81E0E13AF80711F7F701CE
:1023D00080818F3F11F00E94601161E0C114D1042F
:1023E00009F460E08B2D0E945D11000F111FC00FDA
:1023F000D11FD982C882CDB7DEB7E9E00C9470292D
:102400000E9479118EE0E1E8F4E0DF01982F1D923F
:102410009A95E9F7E3E7F4E0DF011D928A95E9F781
:1024200087E00E9453120E9446110895AEE0B0E08A
:10243000ECE1F2E10C945829FE0131968EE0DF01C7
:102440001D928A95E9F710E0FE2E0F2F612F8F2D38
:10245000902F0E9499111F5F1730C1F74EE050E096
:102460006F2D702F83E794E00E94212A21E0892BB1
:1024700081F420E047E061E874E083E794E00E94A3
:102480005412182F0E944A11812F2E96E5E00C94C9
:1024900074298EE0EF2DF02FA3E7B4E001900D92A8
:1024A0008A95E1F7E7CF0895A0E0B0E0EAE5F2E130
:1024B0000C945529D82EE92EF62ED72F042FC22F93
:1024C000222379F081E08093C9020E94CD2190936C
:1024D000C8028093C70280E0CDB7DEB7E8E00C9475
:1024E0007129C090C902CC20B1F38091C7029091AC
:1024F000C8020E94F621059770F310E0000F111F2B
:10250000A8016D2D7E2D8F2D9D2F0E94212A892BB4
:1025100041F0A8016D2D7E2D8F2D9D2F0E942E2A1A
:10252000CC2D1092C9028C2FD7CF0E94BB230E94C2
:10253000860E0E94C82308950E94CD230E94970E04
:102540000E94E72308950E9466210E94A1230E9411
:10255000500E0E9495120E949C120E94630EFBCFA7
:102560009093E1018093E0010895A0E0B0E0EBEBEF
:10257000F2E10C945329E82F71110DC0442321F08E
:10258000F0E0EA51FD4F8491682F782FCDB7DEB788
:10259000EAE00C946F29262F30E0C72FD0E0F0E05E
:1025A000442321F0EA51FD4FE491F0E086E0829F60
:1025B0007001839FF00C11240FEF10E0C701B801E8
:1025C0000E94FB28AB01220F331F65E5649FC00109
:1025D000659F900D1124281B390BC22ECC0CC20E06
:1025E000C8018C1B9D0B8E9F90018F9F300D9E9F6D
:1025F000300D1124832FCC9EB001CD9E700D11247F
:10260000672F77275801A61AB70AAE9ED001AF9E52
:10261000B00DBE9EB00D11247B2F5801AC18B1082F
:102620006501CC9E5001CD9EB00CDC9EB00C1124F7
:10263000AB2CBB240A191B090E9FE0010F9FD00D84
:102640001E9FD00D11246E2F43305105C9F09CEF11
:10265000E91693E0F90650F44130510509F496CF9C
:102660004230510589F07E2F6D2F90CF44305105B7
:1026700071F046305105B9F3632F8B2F7E2F86CF33
:102680006B2F732F8E2F82CF732F8D2F7FCF7D2FA8
:10269000632FF8CF41E00E94B512089508950E947B
:1026A0004A130895CF93DF93982F762F842FE90153
:1026B000692F0E944F13798368838A83DF91CF91BA
:1026C000089580918F04843028F48370846080930F
:1026D0008F0408958838E8F383708468F8CF4F92A8
:1026E0005F926F927F928F929F92AF92BF92CF92A2
:1026F000DF92EF92FF920F9388E090E00E943F2AD2
:102700002B013C0184E290E00E94372A282F30E020
:1027100040E050E060E070E080E090E000E20E9485
:10272000822953014201C12CD12C76012429392957
:102730004A295B296C297D298E299F290F91FF90B9
:10274000EF90DF90CF90BF90AF909F908F907F9051
:102750006F905F904F900895A0E0B0E0E2EBF3E15E
:102760000C9455298901D42FC52F6B017C010E943F
:102770006113A8016D2F7C2F88E090E00E946D2AE4
:1027800098014D2F5C2FB601C70100E20E949D29E0
:10279000622F84E290E00E945B2ACDB7DEB7E8E0CA
:1027A0000C947129EFE8F4E085E0808311828FEFCB
:1027B000828383831482758125E030E04FEF5FEFE1
:1027C00060E0868197810E94AC13089580918F0408
:1027D00080FF03C086958695089580E008959091C6
:1027E0009304933018F49F5F90939304882391F09F
:1027F00020918F0430919004409191045091920463
:102800006091930470919404809195049091960442
:102810000E94AC13089581E00E94EF1308959091F7
:102820009304992319F0915090939304882391F085
:1028300020918F0430919004409191045091920422
:102840006091930470919404809195049091960402
:102850000E94AC13089581E00E940F1408956091C6
:10286000090180918F0480FF11C070E02091080160
:1028700030E0C901880F991F820F931FE091CA01B0
:10288000F091CB0189569B4F0995089580910A01DB
:1028900090910B01282F30E0F901EE0FFF1FE20F9E
:1028A000F31FE956FB4F891700F71182108212823D
:1028B0008F5F3396F8CF90918F0490FF11C0909165
:1028C0000A0150910B01292F30E0F901EE0FFF1F93
:1028D000E20FF31FE956FB4F951718F00E942F14D3
:1028E00008958183608342839F5F3396F5CFA3E091
:1028F000B0E0EDE7F4E10C945B2990918F0490FF38
:102900000AC09E012F5F3F4F0E9452134B81698185
:102910008A810E945B142396E2E00C947729CF937E
:10292000DF93EC01EC81F0E0EF51FE4F4491EFE8D2
:10293000F4E0628181810E9477148C818F5F8C83A7
:10294000DF91CF910895A3E0B0E0E9EAF4E10C94BF
:102950005329F82ED62EE42EA22E80918F0480FFCC
:102960002FC0282F26952695E22FF0E0E855FE4F40
:10297000908190933A048C7F843031F59E012F5FD3
:102980003F4F8F2D0E9452134B8169818A810E9493
:102990005B14F0929004D0929104E0929204AA20E9
:1029A00079F020918F0460919304709194043F2DED
:1029B0004D2D5E2D80919504909196040E94AC134C
:1029C0002396EAE00C946F29923019F4E090920477
:1029D000E0CF963019F4F0909004DBCF9231C9F635
:1029E000EEEEE20F2170B22EE695F0E0EF51FD4FD2
:1029F000E491C12C0E2F10E060910C01C61618F066
:102A00000E942F14C6CF2C2D30E0C09EC001C19E65
:102A1000900D112470E00E94FB288F2DB11013C07F
:102A2000860F90910A01A901490F511D9A01220FA9
:102A3000331F240F351F29563B4F4E2D6D2D0E94FD
:102A40005213C394D9CF861BECCF282FEFE8F4E0C4
:102A5000818143816281815F0E94A314089581E096
:102A60000E9425150895282FEFE8F4E08181438125
:102A700062818F500E94A314089581E00E94331553
:102A80000895282FEFE8F4E0628131E1630F08F444
:102A90006FEF438181810E94A314089581E00E9419
:102AA00041150895282FEFE8F4E0628131E1631BBE
:102AB00008F460E0438181810E94A314089581E0BD
:102AC0000E9452150895282FEFE8F4E0438131E188
:102AD000430F08F44FEF628181810E94A31408958F
:102AE00081E00E9463150895282FEFE8F4E0438108
:102AF00031E1431B08F440E0628181810E94A3140C
:102B0000089581E00E947415089520E00E94A314A6
:102B10000895EF92FF921F93CF93DF93EC0110E0A3
:102B2000EE24EA94F12C60910C01161770F00E94CB
:102B30002F149A818C8190FF25C08F5F8C83DF9149
:102B4000CF911F91FF90EF90089580910A01810F1E
:102B50009927991F9C01220F331F280F391F2956CF
:102B60003B4F70E0C7010E940F29962F8C81409146
:102B7000920460919104199F800D11240E945213B8
:102B80001F5FD1CF8150DACFA0E0B0E0EAECF5E1F1
:102B90000C945429FC01828101E080FD0FEF10E0CC
:102BA00080910C01181798F00E942F148091CA028E
:102BB000013009F051C0811102C080910C01815097
:102BC0008093CA02CDB7DEB7E9E00C9470298091FA
:102BD0000A01C12ED12C8C0D9D2D911DEC01CC0F25
:102BE000DD1FC80FD91FC956DB4F198218821A8200
:102BF00034E0E32EF12CB12C8091CA028B0D893484
:102C00002CF168E40E94ED28892F082E000C990B06
:102C1000C816D90691F4809192048E9DA0018F9DD3
:102C2000500D112455954795559547959E016091F6
:102C30009104809190040E945213B00EF1E0EF1ABB
:102C4000F108E114F104C1F61F5FAACF87FFDDCFC1
:102C500090910C01890FD9CF90E0019660910C0101
:102C600070E00E940F29ACCFA0E0B0E0EAE3F6E10B
:102C70000C944D29FC016280448081E08483E1EE64
:102C8000F1E07490E0E6F2E0E491C0919204C69520
:102C9000C158D0E0CC0FDD1FCD2FDD27812C75E092
:102CA000972EAA24AA94B12C55245A94E719EE2EF3
:102CB000F12C80910C01881638F00E942F14CDB7AA
:102CC000DEB7E0E10C946929C82CD12C82E086158E
:102CD00068F09C9CF0019D9CF00D1124E553FD4F84
:102CE000809190048083809191048183411023C05E
:102CF0009C9CF0019D9CF00D1124E553FD4F138227
:102D0000128280910A018C0D9D2D911D9C01220F34
:102D1000331F280F391F29563B4F9C9CF0019D9C67
:102D2000F00D1124E553FD4F4281618180810E94A5
:102D300052138394BECF9C9C80019D9C100D112446
:102D400005531D4FF80183818823F1F0815083835F
:102D5000589EC0011124648170E00E94FB28FB0191
:102D6000FF27EF51FE4F8491E82FE7195E9EC001C7
:102D70001124B7010E94FB2880919204689FB00142
:102D80001124F8017283BDCF0E94042AB5010E946C
:102D90000F298C179D070CF0B4CFF2E0F61598F4CC
:102DA0000E94042AB5010E940F29F80180830E9425
:102DB000042A209191042695622F70E00E940F2929
:102DC000280FF80121839C9CF0019D9CF00D11249B
:102DD000E553FD4F128280919204893C58F088ECB3
:102DE0009C9CF0019D9CF00D1124E553FD4F8483C4
:102DF000838387CF8431A0F784E1F2CFEFE8F4E05A
:102E000020812E7F208331814281538164817581AD
:102E1000868197810E94AC1310923B040E942F146C
:102E2000089560918F046695669570E04BE050E0E0
:102E30008DE091E00E94142A892B19F481E080939F
:102E40003B040E94CD219093340480933304089571
:102E500090918F0490FF3AC08823C9F18232C8F55F
:102E60008F73282F220F220F80918F048370282BBD
:102E700020938F04662381F0309190044091910457
:102E80005091920460919304709194048091950400
:102E9000909196040E94AC1360918F04669566959C
:102EA00070E04BE050E08DE091E00E94142A892B05
:102EB00091F010923B0481E080933604409192049B
:102EC00060919104809190040E948515089581E09D
:102ED000C8CF81E2C6CF0E941117EDCF682F809135
:102EE0008F04869586958F5F823208F081E00E947C
:102EF0002817089581E00E946E170895682F909119
:102F00008F04969596958FEF890F913009F481E2A1
:102F10000E942817089581E00E947E17089561E0BD
:102F20000E9428170895EFE8F4E080818160808393
:102F3000869586950E948F17089580918F0480FF53
:102F400003C00E94FE1608950E949317089560E042
:102F50000E942817089580913904811137C00E947A
:102F60006F1320938F0430939004409391045093F7
:102F700092046093930470939404809395049093C7
:102F800096042430A0F40E94D2130E946F13209361
:102F90008F04309390044093910450939204609373
:102FA00093047093940480939504909396040E94E4
:102FB000611310923B0480918F0480FF04C08695BA
:102FC00086950E94A71781E08093390408950F9396
:102FD0001F93CF93DF9380913B048823C1F190919D
:102FE0003A04E0918F04E695E695E91BE0933504F9
:102FF000923091F5F0E0E352FE4FE491CE2FD0E015
:103000000FE814E180913604882361F010923604B1
:103010000E94CD219093340480933304109238049D
:10302000109237040E94CD21209133043091340452
:10303000821B930B8F3F9F4750F42C0F3D1F309303
:1030400034042093330483E394E0F8010995DF917D
:10305000CF911F910F910895963051F4E695F0E0CD
:10306000E652FE4FE491CE2FD0E009E815E1CACF39
:103070009C3051F4E695F0E0E952FE4FE491CE2FFA
:10308000D0E004EC15E1BECFC0EDD7E00EE413E1D3
:103090009C3109F0B7CF8E2F63E00E94E128E92F21
:1030A000F0E0EC52FE4FE491CE2FD0E004E316E1C5
:1030B000A9CF08950E94E7170895FA01882311F017
:1030C00009950895FB01FCCFCF93DF93C82FD62F2E
:1030D0000E94E6138C1748F00E94E6138D1728F41F
:1030E0000E947A17DF91CF9108958C2F0E948F173D
:1030F000F9CF1F93CF93DF93EC01FB0115811111E1
:103100005EC00E94250C8272FE01E052F847E53154
:10311000F10508F054C0E252F54D0C9445290E9487
:103120009D17812FDF91CF911F9108954BE857E1B3
:103130006AE777E10E945D18F4CF4AE757E16BE850
:1031400077E1F8CF4DE355E16FE275E1F3CF4FE260
:1031500055E16DE375E1EECF4FE555E16EE475E1C4
:10316000E9CF4EE455E16FE575E1E4CF41E855E183
:1031700060E775E1DFCF40E755E161E875E1DACF5F
:103180004BE254E16BE074E1D5CF4BE054E16BE2EC
:1031900074E1D0CF81E00E948F17C3CF65E082E059
:1031A0000E946418BECF6BE086E0FACF61E18CE04C
:1031B000F7CF6BE182E1F4CF61E28CE1F1CF11E076
:1031C000B0CF0E94590E0895EDE3F4E088E0DF01EE
:1031D0001D928A95E9F70E941F1A0895FC01238128
:1031E0002150330B23703327428150E081E02417B4
:1031F000350709F080E008950F931F93CF93DF9375
:10320000EC01162F042F0E94EE18811113C08A8141
:10321000FE01E80FF11D00FB17F914838F5F837027
:103220008A8388818F5F888381E0DF91CF911F91AE
:103230000F91089580E0F9CFCF93DF93FC01EA016D
:10324000A38182818A17B9F0AE0FBF2FB11D1496EA
:103250008C9187FB992790F98F77DB018C9398836A
:1032600083818F5F8370838381818F5F818381E01E
:10327000DF91CF91089580E0FBCF462F682F8DE33B
:1032800094E00E94FC180895AB01BC018DE394E02A
:103290000E941C190895AEE0B0E0E1E5F9E10C945C
:1032A000572980913C04882351F010923C0480916E
:1032B0003F048093400480913D0480933E040E942B
:1032C0005D1A0E94E118182F882361F110E08CEF3D
:1032D000F82E9DEFE92E1CC01E858D85198388234D
:1032E00031F1EA820E94CD21BC0149815A8182E0FC
:1032F00091E00E9468041F83E8860E94CD21682F18
:1033000082E0792F4F81588590E00E946804102F49
:10331000BE01635F7F4FCE010E960E944419082FB5
:103320008111DACF812F2E96E6E00C947329FA8270
:103330000E94CD21BC0149815A8183E091E00E9425
:1033400068041F83F8860E94CD21682F83E0D9CFBF
:103350008FE891E00197F1F700C00000089590E038
:103360006623E9F084529E4FFC0180818F3FB1F0CB
:10337000E82FE295EF70F0E041A18F7021E030E09E
:10338000B90102C0660F771F8A95E2F7CB01962F2D
:103390009095942391A392A1892B82A308958252A0
:1033A0009E4FE2CF90E06623A9F084529E4FFC012D
:1033B00020812F3F91F0E22FE295EF70E05EF0E088
:1033C000808190E02F7002C0959587952A95E2F74D
:1033D0008170089582529E4FEACF80E0089508954B
:1033E000CF93DF93C0E080914504C81760F00E943E
:1033F000A819C0E080914504C81778F00E94EF1921
:10340000DF91CF91089560E08C2F0E94AF1961E0A9
:103410008C2F0E94AF19CF5FE6CF60E08C2F0E9407
:10342000D219D82F61E08C2F0E94D219EC2FF0E036
:10343000E85BFB4F880F8D2B8083CF5FDBCF82E073
:10344000809345040E94F01908951F93CF93DF9352
:10345000182F440F642BC82FD0E0DE01A85BBB4FB0
:10346000EC918E2F8370681721F1EE0FEE0FE62B93
:10347000EC93EF70F0E0E453FE4FCA5BDB4F9081BA
:103480008881980F9883943024F060E0812F0E9407
:103490003D1988818D3F24F461E0812F0E943D1900
:1034A0008881082E000C990B64E070E00E940F29BF
:1034B0008883DF91CF911F910895CF93DF93C0E070
:1034C00080914504C81718F0DF91CF91089561E00D
:1034D0008C2F0E94D219D82F60E08C2F0E94D21915
:1034E000682F4D2F8C2F0E94251ACF5FE9CF9C01AA
:1034F000AB01509A6BB16E7F7BB17160EFB7F894FE
:10350000CA01880F991F840F951F820F931F82177E
:10351000930741F4EFBF8FE594E00197F1F700C006
:1035200000000895D9014D919D0158E07BB900003C
:1035300000C047FF6BB9440F000000C000C000C0CE
:103540006BB900C05A9591F7E2CF0E944E0D0895D5
:1035500080E00E944D11817008950E9416122FEF95
:1035600086E791E0215080409040E1F700C00000E4
:103570000E9416120E94A81A882321F00E94A51A00
:103580000E94292208950E94AD1A08950E94F00217
:10359000089581E008950E94C91A0895A4E0B0E05A
:1035A000E4EDFAE10C945829F82E09B110E0000F6F
:1035B000012F001F110BB801609570956170609329
:1035C0004C0480914A04681303C080E0FF2021F07E
:1035D00080E00E94C61A81E029B1A22FB0E0B59523
:1035E000A795A095B095BA83A9836A2F617060935F
:1035F0004D0490914B04691302C0FF2011F181E04A
:103600000E94C61A29813A81220F331F2270332764
:103610003A83298331E0032789819A81802B912B7A
:10362000092E000CAA0BBB0BBC01CD010E94CB1ACA
:1036300080914C0490914D0490934B0480934A04E4
:1036400002C08111DFCF2496E5E00C9474295798CD
:103650005F9A5198599A81E00E94CE1A089580E0AD
:103660000E94CE1A0895CF93DF93EB0186319C47D9
:1036700019F50E94250C9D819923A1F08A7A91E089
:10368000811101C090E090934E04882349F085E3B6
:103690000E94B6200E94DF0C80E0DF91CF91089558
:1036A00089E2F6CF80914E04882321F085E30E94C1
:1036B000CD20F0CF89E2FBCF81E0EFCFCF93DF9336
:1036C000EC01FB018581882309F4D2C09E013057AB
:1036D0002332310508F0B2C00E946A0D9093720443
:1036E00080937104FE01E150F047E232F10520F4CD
:1036F000ED50F54D0C9445298091710481608093C3
:10370000710493C0809172048860809372048DC0AC
:10371000809171048260F3CF809171048460EFCF57
:10372000809171048860EBCF809172048160EDCF4D
:10373000809172048260E9CF809171048061DFCF53
:10374000809171048062DBCF809171048064D7CF57
:103750000E94A707809171048068D1CF8091710485
:103760008C60CDCF809172048360CFCF8091710443
:103770008E7FC5CF80917204877FC7CF80917104FF
:103780008D7FBDCF809171048B7FB9CF8091710403
:10379000877FB5CF809172048E7FB7CF80917204FE
:1037A0008D7FB3CF809171048F7EA9CF80917104FA
:1037B0008F7DA5CF809171048F7BA1CF0E94A70739
:1037C000809171048F779BCF80917104837F97CF15
:1037D000809172048C7F99CF8091710482FB99272C
:1037E00090F921E0922790FB82F990FB83F987CF33
:1037F00080917204982F909591708E7F892B90FB09
:1038000081F983CF90917104892F8F7B96FF80641B
:1038100076CF0E94A70790917104892F97FB87F9B3
:1038200080586DCF81E00E94F80D809171049091D5
:1038300072040E946F0D0E94A70780E0DF91CF9174
:10384000089580E0F0CF90917104892F8F7E94FFCE
:10385000806155CF90917104892F8E7F90FF816098
:103860004ECF90917204892F877F93FF88604DCF50
:1038700081E0E4CF282F35EB2303C001112497FF0B
:1038800004C080589109892F089580589F4FFBCF1D
:103890008091550480FF0DC060911D0170E0660F9E
:1038A000771F60387105C0F561157105B9F1862F74
:1038B000089581FF07C060911D0184E0689FB001F9
:1038C0001124EFCF82FF04C060911D0188E0F6CF84
:1038D000809154048823E9F090911C0160911D01AE
:1038E00070E0891730F093E0660F771F9A95E1F743
:1038F000D8CF869F9001879F300D112483E0220F3F
:10390000331F8A95E1F7692F70E0C9010E940F29E2
:10391000C8CF68E070E0CBCF8FE7089581E00895CD
:103920008091550480FF0CC06091190170E075957D
:103930006795759567956115710561F1862F0895F5
:1039400081FF06C06091190170E075956795F3CF0E
:103950006091190170E082FD15C02091530422236B
:10396000B1F0909118016091190170E0291750F49D
:10397000269FA001279F500D1124692F70E0CA01D6
:103980000E940F2960387105B0F28FE7089561E059
:1039900070E0D4CF81E008959091580420915904AB
:1039A000922B20915B04922B20915A04922B992305
:1039B00031F098E09093540491E0909353048D3C3F
:1039C00031F40E94481C8195809359040895E2E3E4
:1039D000E80FE231B0F5F0E0EB5EF44D0C944529D0
:1039E0000E94481CF1CF0E94481C81958093580486
:1039F00008950E94481CFACF0E94901C80935A049C
:103A000008950E94901C8195F9CF0E94901C819589
:103A100080935B0408950E94901CFACF815D990BFE
:103A200021E030E001C0220F8A95EAF78091570427
:103A3000822B809357040895809155048160809370
:103A400055040895809155048260F9CF8091550402
:103A50008460F5CF409158048D3C59F4809159040D
:103A600087FF0DC010925904442359F41092540456
:103A700008C08E3C81F48091590418169CF34423AD
:103A800081F080915A0490915B04892B811159C077
:103A90001092530408958F3C41F447FFF0CF1092E9
:103AA0005804809159048823E0CF803D19F41416FE
:103AB000B4F3E5CF90915A04893D29F41916FCF628
:103AC00010925A04DCCF8A3D19F497FFD8CFF8CF73
:103AD00090915B048B3D29F497FFD1CF10925B044A
:103AE000CECF8C3D19F41916CCF3C9CF9FE2980FB5
:103AF000983090F4815D990B21E030E0B90102C06B
:103B0000660F771F8A95E2F7CB0180959091570455
:103B1000892380935704B3CF8D3D31F480915504B0
:103B20008E7F80935504ABCF8E3D21F48091550458
:103B30008D7FF7CF8F3D09F0A2CF809155048B7F09
:103B4000F0CF08950E94CD2120915804309159045E
:103B5000232B222321F0809351049093520420912F
:103B60005A0430915B04232B222321F080934F04CD
:103B70009093500486E594E00E94AC1F089586E07F
:103B8000E6E5F4E0DF011D928A95E9F7109254040E
:103B900010925304109255040895FC018281811102
:103BA0000DC0838181110AC08481811107C081E029
:103BB0009581911101C080E08170089581E0FCCF72
:103BC000A6E0B0E0E6EEFDE10C94582986E0E6E5DB
:103BD000F4E09E012F5F3F4FD90101900D928A952D
:103BE000E1F7109258041092590410925A0410925E
:103BF0005B048B819C81892B8901882391F08091C2
:103C00005104909152040E94F6219C018091540429
:103C10008823C9F140911E0150E04217530708F470
:103C20003FC08D819E81892B882399F080914F041C
:103C3000909150040E94F6219C01809153048823A6
:103C400009F467C040911A0150E04217530708F485
:103C50006EC0B80186E594E00E94FE20811105C087
:103C600086E594E00E94CD1D81110E94A21D86E090
:103C7000F801A6E5B4E001900D928A95E1F7269649
:103C8000E5E00C94742940911F019AE0499FA0013E
:103C900011244217530728F68F5F8093540402C003
:103CA0008F3FD1F7FB80FF2059F00E94481C91E024
:103CB0001F140CF09FEF899F802D112480935804CE
:103CC000FC80FF2059F00E94481C91E01F140CF06A
:103CD0009FEF899F802D112480935904809158046F
:103CE000882309F49ECFF0905904FF2009F499CF5E
:103CF0000E943A1C811101C081E0809358048F2DED
:103D00000E943A1C882319F0809359048ACF81E0DD
:103D1000FBCF40911B019AE0499FA001112442175B
:103D2000530708F096CF8F5F8093530402C08F3FF4
:103D3000D1F7FD80FF2059F00E94901C91E01F14E4
:103D40000CF09FEF899F802D112480935A04FE80F0
:103D5000FF2059F00E94901C91E01F140CF09FEF7F
:103D6000899F802D112480935B0480915A048823BD
:103D700009F46FCFF0905B04FF2009F46ACF0E9432
:103D80003A1C811101C081E080935A048F2D0E945A
:103D90003A1C882319F080935B045BCF81E0FBCF52
:103DA0000F931F93CF93DF93C42FD22FFC018581F4
:103DB0008823C9F040935E040E94CD2190935D0456
:103DC00080935C0480E28C0F883040F4C77081E0FF
:103DD00001C0880FCA95EAF70E944705DF91CF918D
:103DE0001F910F91089510915E0414133CC08091AF
:103DF0005C0490915D040E94F621883C910598F541
:103E0000C0E2CD0F1D1741F180E2810F883040F4F0
:103E1000177081E001C0880F1A95EAF70E944E05DD
:103E2000C83020F0802F0E943E05D8CF91E08D2F22
:103E3000877001C0990F8A95EAF7892F0E9447057C
:103E4000802F0E943E05D77081E001C0880FDA956F
:103E5000EAF70E944E05C2CF802F0E943E05C8306F
:103E600008F0BCCFF0CF80E28C0F883008F0B6CFDE
:103E7000C77081E001C0880FCA95EAF7EACF0F93B7
:103E8000FC01CB01E851FC47E730F10590F5E95D15
:103E9000F44D0C94452906E221EE41EE6AE17CE7FF
:103EA0000E94D01E80E00F91089507E225EE45EEB6
:103EB0006BE17CE7F5CF06E221EE40EE68E17CE7BE
:103EC000EFCF07E225EE44EE69E17CE7E9CF06E2B9
:103ED00021EE42EE6CE17CE7E3CF07E225EE46EE11
:103EE0006DE17CE7DDCF08E221E045EE6EE17CE7A5
:103EF000D7CFFB018581811110925E0481E0D3CF81
:103F000090936404809363040895E0916304F091B6
:103F10006404309729F00190F081E02D099508950F
:103F200080E00895E0916304F0916404309721F0FB
:103F30000280F381E02D09950895DC01E09163048E
:103F4000F0916404309739F086E08C930480F58119
:103F5000E02DCD0109950895DC01E0916304F09115
:103F60006404309739F082E08C930680F781E02D6D
:103F7000CD0109950895A3E0B0E0E1ECFFE10C94D8
:103F80005B299C01809161049091620482179307E0
:103F9000A1F03093620420936104E0916304F091F6
:103FA0006404309751F083E089833B832A83008443
:103FB000F185E02DCE01019609952396E2E00C945F
:103FC0007729A3E0B0E0E7EEFFE10C945B299C01C8
:103FD00080915F049091600482179307A1F0309361
:103FE000600420935F04E0916304F09164043097CF
:103FF00051F084E089833B832A830084F185E02D9E
:10400000CE01019609952396E2E00C947729209140
:104010000601309107012E5F3F4F80912A018823CE
:10402000A9F08091710487FF11C0209104013091A3
:1040300005012E5F3F4F9DE180E0F90140812F5F38
:104040003F4F41118F5F9150C0F7089595E0F4CF35
:10405000882321F190912A01992311F19091710403
:1040600097FF1EC0982F969596959695803FB0F431
:10407000E0910401F0910501E90FF11D228130E08A
:10408000877041E050E0BA0102C0660F771F8A9541
:10409000E2F72623372381E0232B91F480E0089573
:1040A0002091060130910701F9013296285F3F4FB8
:1040B0009191981721F0E217F307D1F7EFCF81E044
:1040C00008959C01FC0132968FEF90E041914617D4
:1040D00051F08F3F19F4411101C0892F9F5F963035
:1040E000A9F78F3F09F40895280F311D87FD3A95F0
:1040F000F901628308959C01FC013296285F3F4FCD
:104100008191861303C0DF0111971C92E217F30718
:10411000B9F70895FC01862F869586958695603FB0
:1041200060F4E80FF11D677021E030E001C0220F5C
:104130006A95EAF78281822B82830895FC01862F9B
:10414000869586958695603F80F4E80FF11D67702F
:1041500081E090E09C0102C0220F331F6A95E2F7D4
:10416000B90160958281682362830895682F8091E8
:104170002A01882359F08091710487FF07C080913C
:104180000401909105010E948A2008958091060102
:10419000909107010E9461200895682F80912A0163
:1041A000882359F08091710487FF07C08091040132
:1041B000909105010E949E200895809106019091A2
:1041C00007010E947B20089580912A01882379F0BD
:1041D0008091710487FF0BC0E0910401F09105010B
:1041E00032968EE1DF011D928A95E9F70895E091FC
:1041F0000601F0910701329686E0F4CFDC01FB0165
:1042000011969C9111978181981322C012968C91DE
:104210001297882319F0928189131AC013968C91F2
:104220001397882319F09381891312C015968C91E6
:104230001597882319F0958189130AC014969C91CB
:10424000992321F081E02481291303C080E001C07B
:1042500081E08170089508950E942B2108958F5F59
:10426000809365040E942C21089583E08093650467
:104270000E942C2108950E942F21089581E08093AF
:1042800065040E942C2108950E943E2108950895FE
:1042900008950E9448210895089508950E94472195
:1042A0000895CF930E944C210E9416120E944D2126
:1042B000C0E08C2F0E944D11892B31F4CF5FC730A5
:1042C000C1F780E0CF91089581E0FCCF85B7806889
:1042D00085BF85B7806885BF08951F921FB61F925E
:1042E00011248F939F93AF93BF93809166048111A4
:1042F00013C080916F0590917005A0917105B091E8
:1043000072054196A11DB11D80936F0590937005B4
:10431000A0937105B0937205BF91AF919F918F915A
:104320001F901FBE1F90189580917705843031F142
:104330000E941F041092660488E190E020E40FB60A
:10434000F894A895809360000FBE2093600083B717
:10435000817F846083BF83B7816083BF78948895B1
:1043600083B78E7F83BF0FB6F894A89580916000C5
:10437000886180936000109260000FBE08950E94D3
:10438000A7070E942404089582E084BD93E095BDB0
:104390009AEF97BD80936E0008952FB7F89480919F
:1043A0006F0590917005A0917105B09172052FBFB6
:1043B0000895A4E0B0E0EFEDF1E20C945B298FB733
:1043C000F89420916F0530917005409171055091DE
:1043D000720529833A834B835C838FBF69817A811D
:1043E0008B819C812496E2E00C9477299C014FB745
:1043F000F89480916F0590917005A0917105B0912E
:1044000072054FBF821B930B089578941F921FB6BD
:104410001F9211248F939F93AF93BF9380916F0549
:1044200090917005A0917105B09172050196A11D42
:10443000B11D80936F0590937005A0937105B093A3
:104440007205BF91AF919F918F911F901FBE1F90DA
:10445000189581E08093E00080E28093D80010926C
:10446000C9008FE19EE40197F1F700C0000087E0EA
:1044700090EBDC018093800590938105A0938205E9
:10448000B093830588E19CE00FB6F894A8958093DB
:1044900060000FBE90936000FFCF88E19CE00FB6F4
:1044A000F894A895809360000FBE90936000FFCFB2
:1044B00080916F040895282FCB01BA0130917705C0
:1044C0003430E1F42F702093E9002FEF3091E800B1
:1044D00035FD07C035ED3A95F1F700002150211167
:1044E000F5CF2091E80025FF09C040E050E00E9490
:1044F0005F248091E8008E778093E8000895BC01E6
:1045000043E050E082E00E945B220895BC0146E057
:1045100050E082E00E945B220895BC0140E250E03E
:1045200082E00E945B220895CF93DF93D82FC92F9A
:1045300048E050E0682F792F81E00E945B2288E0FC
:10454000ED2FFC2FA7E6B4E001900D928A95E1F7DC
:10455000DF91CF91089580917605811109C00E9465
:10456000E7250E9444268091E20084608093E20067
:1045700008951092760508950E943E210895609155
:10458000730581E0611101C080E00E94352108952A
:104590009091770581E0943009F080E06091730597
:1045A0000E943B21089542E061EC81E00E94632576
:1045B00042E261EC82E00E9463259091770581E000
:1045C000943009F080E0609173050E942F210895D6
:1045D00080917905893089F148F4823009F4A0C0CE
:1045E000833009F45AC0813041F008958A3009F4CB
:1045F00087C08B3009F46CC0089580917805813AAA
:1046000009F04AC08091E800877F8093E80080919C
:104610007C0590917D05892B61F060E080E090E061
:1046200070E00E94AE248091E8008B778093E800D0
:10463000089568E087E694E0F3CF809178058132B1
:1046400059F580917C0590917D05029728F5809120
:10465000E800877F8093E8008091E80082FF18C01F
:104660009091F3008091F200029731F48091F10073
:10467000813011F0863021F48091F10080936F0435
:104680008091E8008B778093E8000E94972504C012
:10469000809177058111E0CF089580917805813A66
:1046A000D9F780917C0590917D05892BA9F78091A0
:1046B000E800877F8093E8008091E80080FFFCCFCE
:1046C00080912A018093F1008091E8008E77DBCF02
:1046D00080917805813201F780917C0590917D056C
:1046E000892BD1F68091E800877F8093E8000E94B3
:1046F000972580917A0580932A010E94A707089543
:1047000080917805813241F68091E800877F80931F
:10471000E8000E94972580917B058093700408959E
:1047200080917805813A09F0B7CF8091E800877FC2
:104730008093E8008091E80080FFFCCF80917004B6
:10474000C1CF84B7877F84BF0FB6F894A8958091B6
:104750006000886180936000109260000FBE80E866
:1047600090E00FB6F89480936100909361000FBEC3
:104770000E94442108950E94E7250E944426E2EE0B
:10478000F0E080818460808378940E94C728089537
:1047900080E291E00E94801F089580917705853026
:1047A00031F480917705853019F00E94BF2108957A
:1047B0000E94942180917505882399F30E945121CC
:1047C000882379F30E9449240E94A707EACF08951D
:1047D0009A0140917E0550917F050E94F023089533
:1047E000AC01CB01D901252F332723303105E1F06E
:1047F00058F421303105C9F122303105D9F180E07A
:1048000090E020E030E01EC02132310521F122325B
:104810003105A9F7892BC1F16130710581F786EB6C
:1048200090E021E734E00EC0CA019927413069F0D9
:104830008230910569F0E0E2F4E0892B01F7849180
:1048400090E09F012D933C930895EEEFF3E0F7CFB6
:10485000E6EEF3E0F4CF892B91F06130710579F643
:1048600089E090E02FE434E0EDCF82E190E02FE5A5
:1048700034E0E8CF8BE390E024E234E0E3CF89E05A
:1048800090E026E334E0DECF84E490E027E235E0F8
:10489000D9CF80E189BD82E189BD09B400FEFDCF99
:1048A0008091D8008F7D8093D8008091E000826055
:1048B0008093E0008091E00081FDFCCF0895AF92ED
:1048C000BF92CF92DF92FF920F931F93CF93DF930C
:1048D0006C01EB018A010E94B625F82E811123C0DC
:1048E0000115110539F0F80180819181C81BD90BA0
:1048F000C80ED91EA12CB12C2097A9F08091E800F8
:1049000085FD22C08091E8008E778093E800011534
:104910001105A1F0F801808191818A0D9B1D918381
:10492000808385E0F82E8F2DDF91CF911F910F911D
:10493000FF90DF90CF90BF90AF9008950E94B62572
:104940008823E1F2F82EEFCFF60181916F01809379
:10495000F1002197FFEFAF1ABF0ACECFFC019B01F8
:1049600080917E0590917F058617970718F0672B39
:1049700061F0C90140E0009771F441110CC08091D1
:10498000E80082FF35C080E008958091E8008E77CE
:104990008093E800EECF209177052223A9F12530FE
:1049A000A9F12091E80023FD2DC02091E80022FD0F
:1049B000E6CF2091E80020FFDECF3091F300209178
:1049C000F200009719F02830310558F041E0283006
:1049D000310509F040E02091E8002E772093E800AF
:1049E000CACF41914093F10001972F5F3F4FE9CF2C
:1049F00080917705882341F0853041F08091E8006F
:104A000083FFBDCF81E0089582E0089583E008959B
:104A1000FC019B0180917E0590917F058617970789
:104A200018F0672B61F0C90140E0009771F4411163
:104A30000CC08091E80082FF36C080E0089580912C
:104A4000E8008E778093E800EECF2091770522234F
:104A5000B1F12530B1F12091E80023FD2EC0209165
:104A6000E80022FDE6CF2091E80020FFDECF309164
:104A7000F3002091F200009719F02830310558F02A
:104A800041E02830310509F040E02091E8002E7720
:104A90002093E800CACF44914093F10031960197EA
:104AA0002F5F3F4FE8CF80917705882341F0853015
:104AB00041F08091E80083FFBCCF81E0089582E05F
:104AC000089583E00895982F973028F08F70809391
:104AD000E90081E008959093E900242F762F50E0BB
:104AE000981731F07091EC002091ED005091F0009A
:104AF00021FD02C09F5FE8CF3091EB003E7F3093F5
:104B0000EB003091ED003D7F3093ED003091EB00F4
:104B100031603093EB007093EC002093ED005093E4
:104B2000F0002091EE0027FDE5CF80E00895809110
:104B3000780587FF13C08091E80082FF06C080914E
:104B4000E8008B778093E80004C08091770581119D
:104B5000F2CF0895809177058823D9F38091E800FA
:104B600080FFF8CF8091E8008E77ECCF2091E400B1
:104B70003091E50095E6A9018091EC0081708823D1
:104B800031F08091E80080FF06C080E00895209118
:104B9000E80022FD1BC080917705882391F08530C5
:104BA00091F08091EB0085FD10C02091E4003091E0
:104BB000E5004217530701F391509111DCCF84E0D7
:104BC000089582E0089583E0089581E008950E94A9
:104BD00056260E945E26E0EEF0E0808181608083B0
:104BE000E8EDF0E080818F77808319BCA7EDB0E01D
:104BF0008C918E7F8C9380818F7E8083109276053E
:104C000008950F931F93CF93DF930E9456260E941F
:104C10005E26C8EDD0E088818F77888388818068A0
:104C2000888388818F7D888319BC109277051092C4
:104C30007305109275051092740500EE10E0F801EE
:104C400080818B7F808388818160888342E060E0FF
:104C500080E00E946325E1EEF0E080818E7F80831A
:104C6000E2EEF0E0808181608083808188608083D3
:104C7000F80180818E7F8083888180618883DF91C5
:104C8000CF911F910F910895E8EDF0E080818F7E24
:104C90008083E7EDF0E080818160808384E082BFE3
:104CA00081E0809376050E9401260895E8EDF0E00A
:104CB00080818E7F80831092E20008951092DA0046
:104CC0001092E10008951F920F920FB60F921124D7
:104CD0002F933F934F935F936F937F938F939F9304
:104CE000AF93BF93EF93FF938091E10082FF0BC0DE
:104CF0008091E20082FF07C08091E1008B7F80936A
:104D0000E1000E94C6288091DA0080FF19C08091DE
:104D1000D80080FF15C08091DA008E7F8093DA0082
:104D20008091D90080FF94C080E189BD82E189BD76
:104D300009B400FEFDCF81E0809377050E94AB228D
:104D40008091E10080FF19C08091E20080FF15C0D2
:104D50008091E2008E7F8093E2008091E20080618A
:104D60008093E2008091D80080628093D80019BCC3
:104D700085E0809377050E94BF228091E10084FF47
:104D800029C08091E20084FF25C080E189BD82E1D5
:104D900089BD09B400FEFDCF8091D8008F7D80933E
:104DA000D8008091E1008F7E8093E1008091E20045
:104DB0008F7E8093E2008091E20081608093E20028
:104DC00080917305882309F449C084E080937705B6
:104DD0000E94C8228091E10083FF29C08091E200F7
:104DE00083FF25C08091E100877F8093E10082E00E
:104DF00080937705109273058091E1008E7F8093F8
:104E0000E1008091E2008E7F8093E2008091E200D9
:104E100080618093E20042E060E080E00E946325D0
:104E20008091F00088608093F0000E94BC22FF9186
:104E3000EF91BF91AF919F918F917F916F915F9112
:104E40004F913F912F910F900FBE0F901F9018958B
:104E500019BC109277050E94B92272CF8091E300AD
:104E600087FF02C083E0B2CF81E0B0CF1F920F92E4
:104E70000FB60F921124FF920F931F932F933F931E
:104E80004F935F936F937F938F939F93AF93BF9352
:104E9000CF93DF93EF93FF9309EE10E0F801808149
:104EA000C091EC00C795CC27C7958F70FC2EF82ACF
:104EB0001082C0EFD0E08881877F888378940E9439
:104EC0007F27F8011082888188608883CF2DCF707A
:104ED000C083FF91EF91DF91CF91BF91AF919F91EF
:104EE0008F917F916F915F914F913F912F911F9182
:104EF0000F91FF900F900FBE0F901F901895AAE290
:104F0000B0E0E5E8F7E20C945A2988E795E0FC0167
:104F100001962091F100208325E080389207B9F7AF
:104F20000E94E8228091E80083FF38C080917805D4
:104F3000909179059A3090F5E92FF0E0E25DF44D1B
:104F40000C944529803889F0823841F580917C05A0
:104F50008F70873018F58093E9008091EB0085FB16
:104F6000882780F91092E90006C08091740590911D
:104F70007505911182609091E800977F9093E80009
:104F80008093F1001092F1008091E8008E7723C0A9
:104F9000811116C080917A05813011F18091E8006D
:104FA00083FF0AC08091E800877F8093E8008091AA
:104FB000EB0080628093EB00AA96E3E00C947629E4
:104FC000823061F780917A05882389F01092E90098
:104FD0008091E800877F8093E8000E949725DECFCC
:104FE00081E0933009F080E080937505EFCF8091E8
:104FF0007C058F702FEF280F263080F68093E90014
:105000002091EB0020FFE2CF933031F48091EB0050
:1050100080628093EB00DACF9091EB0090619093E7
:10502000EB0021E030E0A90102C0440F551F8A9532
:10503000E2F74093EA001092EA008091EB0088606A
:10504000E8CF8111ABCF10917A051F778091E300F3
:105050008078812B8093E3008091E800877F8093A4
:10506000E8000E9497258091E80080FFFCCF8091A6
:10507000E30080688093E30083E0111101C082E0C7
:10508000809377058BCF8058823008F087CF80914E
:105090007A0590917B058C3D53E0950799F583E067
:1050A0008A838AE289834FB7F894DE01139620E061
:1050B0003EE051E2E32FF0E050935700849120FF4F
:1050C00003C082958F703F5F8F708A30C8F0895C13
:1050D00090E08D939D932F5F243161F74FBF8091B6
:1050E000E800877F8093E8006AE270E0CE010196D5
:1050F0000E94AE248091E8008B778093E8004ECF29
:10510000805DE6CF60917C0570917D05AE014F5FBB
:105110005F4F0E94E823BC01892B09F43FCF8091A7
:10512000E800877F8093E80089819A810E940825A2
:10513000E1CF803809F032CF8091E800877F8093FB
:10514000E800809173058093F1001ECF811126CF76
:1051500090917A05923008F021CF8091E800877F06
:105160008093E800909373050E94972580917305C2
:10517000882331F084E0809377050E94D3220ECFFC
:105180008091E30087FDF6CF81E0F5CF0895CF93BE
:1051900080917705882399F08091E900C091EC0017
:1051A000C795CC27C7958F70C82B1092E9008091C6
:1051B000E80083FD0E947F27CF70C093E900CF9164
:1051C0000895991B79E004C0991F961708F0961B63
:1051D000881F7A95C9F78095089587FB082E0626C3
:1051E00087FD819567FD61950E94E1280EF49195F8
:1051F00007FC81950895AA1BBB1B51E107C0AA1F9C
:10520000BB1FA617B70710F0A61BB70B881F991F67
:105210005A95A9F780959095BC01CD01089597FB0B
:10522000072E16F4009407D077FD09D00E94FB28C2
:1052300007FC05D03EF4909581959F4F0895709599
:1052400061957F4F0895A1E21A2EAA1BBB1BFD0199
:105250000DC0AA1FBB1FEE1FFF1FA217B307E40755
:10526000F50720F0A21BB30BE40BF50B661F771FAD
:10527000881F991F1A9469F760957095809590958D
:105280009B01AC01BD01CF010895EE0FFF1F0590FA
:10529000F491E02D09942F923F924F925F926F927A
:1052A0007F928F929F92AF92BF92CF92DF92EF92B6
:1052B000FF920F931F93CF93DF93CDB7DEB7CA1B37
:1052C000DB0B0FB6F894DEBF0FBECDBF09942A8862
:1052D000398848885F846E847D848C849B84AA840A
:1052E000B984C884DF80EE80FD800C811B81AA8197
:1052F000B981CE0FD11D0FB6F894DEBF0FBECDBF62
:10530000ED010895002E083090F0982F872F762F0A
:10531000652F542F432F322F22270850F4CF220F0E
:10532000331F441F551F661F771F881F991F0A953B
:10533000B2F7002D089597FD1094002E083098F0D4
:105340000850232F342F452F562F672F782F892F62
:10535000912DF4CF159497958795779567955795E7
:105360004795379527950A95AAF71124002D08959A
:105370008F929F92AF92BF92CF92DF92EF92FF9265
:10538000CF93DF93EC01688179818A819B816115DC
:1053900071058105910521F464E279ED8BE597E0D3
:1053A0002DE133EF41E050E00E948F2A49015A017C
:1053B0009B01AC01A7EAB1E40E94AE2A6B017C011B
:1053C000ACEEB4EFA50194010E94BC2ADC01CB0134
:1053D0008C0D9D1DAE1DBF1DB7FF03C00197A10918
:1053E000B04888839983AA83BB839F77DF91CF914D
:1053F000FF90EF90DF90CF90BF90AF909F908F90F5
:1054000008950E94B829089580E091E00E94B8298B
:105410000895B0E0A0E08093000190930101A09373
:105420000201B09303010895FC014150504030F057
:1054300001900616D1F73197CF0108958827992753
:105440000895FB01DC0104C08D910190801921F4C5
:1054500041505040C8F7881B990B0895FB01DC01AF
:1054600002C001900D9241505040D8F70895F9992B
:10547000FECF92BD81BDF89A992780B50895A6E127
:10548000B0E044E050E00C94812AA8E1B0E042E0B2
:1054900050E00C94812ADC01A40FB51F415050400C
:1054A00048F0CB01840F951F2E910E945C2A415039
:1054B0005040D0F70895262FF999FECF92BD81BDB7
:1054C000F89A019700B4021639F01FBA20BD0FB642
:1054D000F894FA9AF99A0FBE08950396272F0E941E
:1054E0005C2A0E945B2A252F0E945C2A242F0C94A0
:1054F0005C2A0196272F0E945C2A0C945B2ADC010F
:10550000CB01FC01F999FECF06C0F2BDE1BDF89ACE
:10551000319600B40D9241505040B8F70895052ED1
:1055200097FB1EF400940E94A62A57FD07D00E9404
:10553000232907FC03D04EF40C94A62A50954095DD
:10554000309521953F4F4F4F5F4F0895909580952F
:10555000709561957F4F8F4F9F4F08950E94C12A8C
:10556000A59F900DB49F900DA49F800D911D1124B7
:105570000895B7FF0C94AE2A0E94AE2A821B930BAB
:105580000895A29FB001B39FC001A39F700D811D1C
:105590001124911DB29F700D811D1124911D08953C
:1055A000F894FFCF93059305DA05DA053F065C060C
:1055B000C205C2056106D806E906E9068F189618E5
:1055C0009D18A218A718AC18B118B618BB18C018A7
:1055D000C518CA18CE189118D318D6189118911852
:1055E000D9189118DC18B61B2A1CBE1B881B8C1BF3
:1055F000C21B901BC61BD21B9C1B231CA01BD61BB3
:10560000A41BDA1B021CA81BDE1B091CAE1BE41B1F
:10561000EC1B941BCA1B981BCE1BB21BE81BF81B70
:10562000121C211C821BBA1B311CF01CF31CF91C20
:105630000E1D0E1D0E1D0E1D0E1D0E1D0E1D0E1D12
:10564000FC1C011D051D0B1D1C1D221D261D5B1FA5
:10565000611F4B1F551F671F6D1F731FA227C82790
:10566000CE27C827CE2721284328CE279928A62829
:10567000010000008002A002004800484801121307
:105680001415161718191A1B280850011E0A1401A0
:10569000582294228D2286227F2201E200E900EA2C
:1056A00000B500B600B700CD008301CC008A01929E
:1056B0000194012102230224022502260227022A44
:1056C00002B300B4006F0070009F01CB019F02A0E5
:1056D00002E200E900EA00B500B600B700CD0083A1
:1056E00001CC008A019201940121022302240225A7
:1056F00002260227022A02B300B4006F0070009F46
:1057000001CB019F02A002C63435379567F1F03610
:105710003033F73132F5F6F40001020202020606D8
:10572000060606060C0C0C0C0C0C121212121212AD
:10573000121212121C1C1C1C1C1C771A00FF0100E8
:10574000010000FFFF0000010001FF00949366923A
:00000001FF
